:020000040000FA
:040000008131882999
:100008007E1480312E000F1C0A280B2886298F3178
:100018007C278031F2007208F40041298030740690
:10002800031D172818281A280F1651290F125129AD
:1000380080307406031D212822282528EF01EF0AA5
:100048005129EF01512980307406031D2C282D28D1
:100058003028F501F50A5129F50151298030740637
:10006800031D372838284228D401D501D60160302D
:10007800F2007208D700D801D9015129D401D5015D
:10008800D6012030F2007208D7003F2820006E0801
:10009800F200F3017308003A031953285129720832
:1000A800223A03192728103A03193228703A0319FB
:1000B8001228803A03191C28303A0319512951296A
:1000C800512920006E08F200F3017308003A031961
:1000D8006E2851297208423A03196428B03A031964
:1000E80051295129750803197A287B288F28FF3050
:1000F800F20072082000D400FF30F2007208D50028
:10010800C030F2007208D600D701D8015A30F20088
:100118007208D90051292000D401D501D601D70190
:10012800D8015A30F2007208D9005129750803190C
:100138009E289F288F287B2852308531482580317A
:100148007408F20072082000EE00512952308531FF
:1001580048258031A4282000D401D501D601D70133
:10016800D801D901A428C030F20072082000D400B8
:100178004030F2007208D50075080319C428C52854
:10018800CA288030F2007208D600CB28D601403049
:10019800F2007208D7008030F2007208D800D90146
:1001A80051292000D401D5018030F2007208D60010
:1001B8008030F2007208D7008030F2007208D80050
:1001C8005030F2007208D90051292000D401D5011D
:1001D8004030F2007208D600D7018030F200720871
:1001E800D80040282000D401D501D6012030F200E3
:1001F8007208D700D801D901A4282000D401D5015C
:10020800D50AFF30F2007208D600FF30F2007208FB
:10021800D700FF30F2007208D800FF30F2007208F1
:10022800D90051297408F200F3017308003A031940
:100238001E2951297208023A03197628103A03191F
:100248009A28303A0319AF28103A0319F628703A59
:100258000319A028203A0319D528C03A0319B7284A
:10026800103A03190129703A0319AA28203A0319E8
:10027800E928103A03198F2851297808F200F30168
:100288007308003A0319492916297208033A031911
:100298004A28073A03196528162920006F08031908
:1002A800562957295C29CF30F2007208D2006A29F2
:1002B800750803196029612966299E30F2007208C1
:1002C800D2006A298230F2007208D2007808523EC1
:1002D8008600870101088F317127803120004C0882
:1002E80078020318782979297D290130F2007208EB
:1002F800F8070C12003200320032003220000C16CF
:100308002E000F107E10090081318A298F316E2747
:100318008131F5008F316F278131F6008F317027D9
:100328008131F700E5308400873085004C30860045
:10033800003087000030FF001A308F31AE2781313E
:10034800F0308400233085000030FE000430FF00C8
:100358008F31A2278131F801F9016630840000301D
:1003680085000A30FE000030FF008F31A22781315E
:10037800A0308400003085003830FE000030FF00D7
:100388008F31A22781317E1020008631B82E3C3073
:100398002000B9003908A000603087319E278131DC
:1003A800BA302000B9003908A000613087319E2793
:1003B80081313A302000B9003908A0006230873115
:1003C8009E278131B3302000B9003908A00063307E
:1003D80087319E27813146302000B9003908A000B6
:1003E800643087319E278131BA302000B90039083E
:1003F800A000653087319E27813138302000B90050
:100408003908A000663087319E278131BC30200032
:10041800B9003908A000673087319E2781316030E4
:100428008F31BA2781312000B9003908C200613004
:100438008F31BA2781312000B9003908C3006230F2
:100448008F31BA2781312000B9003908C4006330E0
:100458008F31BA2781312000B9003908C5006430CE
:100468008F31BA2781312000B9003908C6006530BC
:100478008F31BA2781312000B9003908C7006630AA
:100488008F31BA2781312000B9003908C800673098
:100498008F31BA2781312000B9003908C900CA0153
:1004A800CB0120004B08803AB90080303902031D87
:1004B8005F2A42084A020318622A632A702AF03027
:1004C8002000B9002630BA004A08390786004B08D0
:1004D8003A3D87008101BD2A20004B08803A803CC4
:1004E800031D782A4A08430203187B2A7C2A8E2A8D
:1004F800F0302000B9002630BA004A083907BB009E
:100508004B083A3DBC003B0886003C088700FF309A
:100518008100BD2A20004B08B0004A08AF004208FD
:10052800B900BA013908B1003A08B2004308BB0063
:10053800BC013B08B3003C08B4000030B500B6006D
:10054800FF30B7000030B8008731C3278131200061
:10055800BD00F030BE002630BF004A083E07C0008C
:100568004B083F3DC10040088600410887003D0810
:1005780081004B08803AB90080303902031DC62A31
:1005880044084A020318C92ACA2AD72AF030200088
:10059800B9002530BA004A08390786004B083A3DA9
:1005A80087008101242B20004B08803A803C031DE2
:1005B800DF2A4A0845020318E22AE32AF52AF0301E
:1005C8002000B9002530BA004A083907BB004B089B
:1005D8003A3DBC003B0886003C088700FF3081009C
:1005E800242B20004B08B0004A08AF004408B9008B
:1005F800BA013908B1003A08B2004508BB00BC018D
:100608003B08B3003C08B4000030B500B600FF302A
:10061800B7000030B8008731C32781312000BD0002
:10062800F030BE002530BF004A083E07C0004B0826
:100638003F3DC10040088600410887003D08810011
:100648004B08803AB90080303902031D2D2B46082B
:100658004A020318302B312B3E2BF0302000B90012
:100668002430BA004A08390786004B083A3D87000B
:1006780081018B2B20004B08803A803C031D462BC0
:100688004A0847020318492B4A2B5C2BF0302000FC
:10069800B9002430BA004A083907BB004B083A3D74
:1006A800BC003B0886003C088700FF3081008B2B8C
:1006B80020004B08B0004A08AF004608B900BA014C
:1006C8003908B1003A08B2004708BB00BC013B0832
:1006D800B3003C08B4000030B500B600FF30B700E6
:1006E8000030B8008731C32781312000BD00F030C9
:1006F800BE002430BF004A083E07C0004B083F3DFB
:10070800C10040088600410887003D0881004B0869
:10071800803AB90080303902031D942B48084A02F8
:100728000318972B982BA52BF0302000B900233005
:10073800BA004A08390786004B083A3D870081010C
:10074800F22B20004B08803A803C031DAD2B4A0851
:1007580049020318B02BB12BC32BF0302000B9008D
:100768002330BA004A083907BB004B083A3DBC00A1
:100778003B0886003C088700FF308100F22B2000F0
:100788004B08B0004A08AF004808B900BA01390858
:10079800B1003A08B2004908BB00BC013B08B300ED
:1007A8003C08B4000030B500B600FF30B700003098
:1007B800B8008731C32781312000BD00F030BE006A
:1007C8002330BF004A083E07C0004B083F3DC10028
:1007D80040088600410887003D0881000130CA07AB
:1007E8000030CB3D4B08803AB90081303902031DF7
:1007F800FF2B00304A02031C022C032C552A080048
:100808002000A20000308C1B01302100C9000030FC
:1008180020000C1B01302100CB00003020000D18F7
:1008280001302100C800003020008D18013021005F
:10083800CA00003020000F1801302100CD00003020
:1008480020000E1901302100CE00003020008D1B41
:1008580001302100CC00003020000D1B01302100A8
:10086800CF00003020008C1901302100C00000307A
:1008780020000C1801302100C200003020000C19A3
:1008880001302100C100003020008C180130210007
:10089800C300003020000D1A01302100C4000030D0
:1008A80020008D1A01302100C600003020000D19EB
:1008B80001302100C500003020008D1901302100D1
:1008C800C70008307902031C6A2C6B2C6C2CF901C8
:1008D8007908C83E860087010108031D742C752C11
:1008E8007E2C01302000A0007908A83E86008701F0
:1008F800200881077908C03E860087010108031D8A
:10090800862C872C902C01302000A0007908A03E6E
:1009180086008701200881077908B83E860087018C
:100928007908C83E840085010008010603199D2C3A
:100938009E2CB92C7908A83E8600870181010130D8
:100948002000A000790AA92CA035890BA82C200822
:10095800A1002108F70422080319B32CB42CB92CE0
:100968007908D03E8600870181017908B03E86006B
:1009780087017908C03E8400850100080106031933
:10098800C62CC72CE22C7908A03E8600870181017D
:1009980001302000A000790AD22CA035890BD12C77
:1009A8002008A1002108F60422080319DC2CDD2CFC
:1009B800E22C7908663E8600870181017908A83E05
:1009C8008600870103300102031CEB2CEC2C062D5A
:1009D80001302000A000790AF22CA035890BF12CF7
:1009E8002008FF3AA1002108F70522080319FD2C69
:1009F800FE2C062DFF30A0007908D03E8600870126
:100A0800200881007908A03E860087010330010292
:100A1800031C0F2D102D2A2D01302000A000790A6B
:100A2800162DA035890B152D2008FF3AA1002108A5
:100A3800F60522080319212D222D2A2DFF30A000AA
:100A48007908663E86008701200881007908C83E3B
:100A58008600870101082000A0007908B83E8600BA
:100A68008701200881007908C03E860087010108B7
:100A7800A0007908B03E8600870120088100013077
:100A8800A0002008F9070800F1000530F000700800
:100A98002000CC007708F0007108023E860087012C
:100AA800700881007608F0007108033E860087010F
:100AB800700881005108F0007108043E8600870123
:100AC800700881005008F0007108053E8600870113
:100AD800700881004F08F0007108063E8600870103
:100AE800700881004E08F0007108073E86008701F3
:100AF8007008810075080319822D832DE92D1430A3
:100B0800F0007008CC0021005208F0007108083E7F
:100B180086008701700881005008F0007108093EBE
:100B280086008701700881005308F00071080A3EAA
:100B380086008701700881005108F00071080B3E9B
:100B4800860087017008810020006908F00071089C
:100B58000C3E86008701700881006808F000710863
:100B68000D3E86008701700881006708F000710853
:100B78000E3E86008701700881006608F000710843
:100B88000F3E86008701700881006B08F00071082D
:100B9800103E86008701700881006A08F00071081D
:100BA800113E86008701700881006D08F000710809
:100BB800123E86008701700881006C08F0007108F9
:100BC800133E86008701700881000800103020005D
:100BD800A0000030A100873173278531F030200054
:100BE800A9002630AA0020082907860021082A3DE6
:100BF8008700010887313C278531FF3A2000AB0088
:100C08002B08CF001130A0000030A10087317327D6
:100C18008531F0302000A9002530AA0020082907D6
:100C2800860021082A3D8700010887313C27853145
:100C3800FF3A2000AB002B08CE001630A000003091
:100C4800A100873173278531F0302000A9002430B6
:100C5800AA0020082907860021082A3D87000108E4
:100C680087313C278531FF3A2000AB002B08D100A3
:100C78001730A0000030A100873173278531F0308C
:100C88002000A9002330AA0020082907860021088F
:100C98002A3D8700010887313C278531FF3A20002B
:100CA800AB002B08D00008002000AC01A71F5D2E68
:100CB8005E2E652EA609A709A60A0319A70AAC0184
:100CC800AC0AA91F682E692E722EA809A909A80ABC
:100CD8000319A90A0130AA002A08AC06AD01AE0121
:100CE800260827040319792E7A2EA92EAB01AB0A00
:100CF800862E0130A635A70D890B7E2E0130AA005D
:100D08002A08AB07A71F892E8A2E7D2E0130AD3504
:100D1800AE0D890B8B2E27082902031D952E260858
:100D28002802031C982E992E9E2E2608A802270812
:100D3800A93B2D140130A736A60C890B9F2E013034
:100D4800AB02031DA82EA92E8A2E2C080319AD2E3E
:100D5800AE2EB32EAD09AE09AD0A0319AE0A2E08A0
:100D6800A7002D08A60008008731012786318F319A
:100D7800982786318131CB2186315A302100D8001D
:100D880058082000D3002100D901DA0120000C16F0
:100D9800003020008C1A01302100DB005B080319A9
:100DA800D62ED72EDB2E0130D8005808DA075B087C
:100DB80059060319E02EE12EE22EDA015B08D8006D
:100DC8005808D90003305A02031CEB2EEC2EF72EDC
:100DD800F8010930D80058082000CC00FF30230063
:100DE8008C002000EE017508843104248631853199
:100DF800EA258631CC2E81318829FF3020009100E8
:100E0800FF309200FF309300EF309400FF309500E0
:100E18003E00B801C301C330CE00D901E401CF3090
:100E2800B900FF30C4000430CF000130DA00E5011A
:100E38002000A0011030A4002408A1004030A50023
:100E48002508A20024308F31CC2787312000931247
:100E580011128F318927873115303E00A5008F3157
:100E6800902787318B170B172E000F1019140800C5
:100E78002000A30023080F39A0000430A035890BF7
:100E8800422F2308A1000430A136890B482F2108DE
:100E98000F392004A2002208A30023083339A00038
:100EA8000230A035890B552F2308A1000230A13646
:100EB800890B5B2F210833392004A2002208A300E4
:100EC80023085539A0000130A035890B682F233637
:100ED80055392004A1002108A30023080800200098
:100EE800200821009E009C013F309D001314131818
:100EF8007E2F7F2F7B2F0C082000A2000230A23605
:100F0800890B832F2208A300A40121000D082000CB
:100F1800A500A6010630A535A60D890B8F2F23083D
:100F28002504A70024082604A8002708A0002808EC
:100F3800A10008002000A10000308B1B0130A20096
:100F48008B1330001E171E15F0309B00200021085F
:100F580030009A002000200830009C008F31822742
:100F6800873130009E18B92FBA2FB52F1E112000D7
:100F780022080319C02FC12FC22F8B170800200089
:100F880031083302A6003208343BA70031082F028B
:100F9800A0003208303BA10035083702A20036080D
:100FA800383BA3008F31E027873120002108A900B2
:100FB8002008A800863158268731200026083507E2
:100FC800080009340334F734F734F734F7349E341F
:100FD8005A3400340034003400340034003400340F
:100FE8000034003400340034003400340034003459
:060FF80000340034003457
:101EDC000134FF34FF34F000700823008C0008003C
:101EEC0023000F1C7A2F7B2F762F08008F3176273B
:101EFC008F3123000C080800553030009F00AA30A9
:101F0C009F009E14080055303D008F00AA308F00B2
:101F1C008F01080055303D008F00AA308F00013032
:101F2C008F000800043021009300940195019A0160
:101F3C003F30980093170800640080010131013094
:101F4C00FE020030FF3B7F087E04031DA32F0034EC
:101F5C00FE0012001E000130FE020030FF3B7F0825
:101F6C007E04031DAF2F00342000A10030001E178B
:101F7C00F0309B002000210830009A001E141C0831
:101F8C002000A0002008A200220808002000A300C6
:101F9C00231DD12FD22FD62F220823008F00DA2F0A
:101FAC002008220423008F00200023082104230092
:101FBC00900008002000A401A501201CE62FE72FAB
:101FCC00EB2F2208A4072308A53D0130A235A30D51
:101FDC00890BEC2F0130A136A00C890BF12F2008B6
:101FEC002104031DFA2FFB2FE32F2508A100240841
:041FFC00A000080039
:020000040001F9
:0A000E008C3FFE379F3FFF3FFF3F8E
:00000001FF
